{
  "contractName": "CredentialContract",
  "abi": [
    {
      "anonymous": false,
      "inputs": [
        {
          "indexed": false,
          "internalType": "string",
          "name": "credentialId",
          "type": "string"
        },
        {
          "indexed": false,
          "internalType": "bytes32",
          "name": "hashValue",
          "type": "bytes32"
        },
        {
          "indexed": false,
          "internalType": "string",
          "name": "ipfsHash",
          "type": "string"
        }
      ],
      "name": "CredentialIssued",
      "type": "event"
    },
    {
      "anonymous": false,
      "inputs": [
        {
          "indexed": false,
          "internalType": "string",
          "name": "credentialId",
          "type": "string"
        },
        {
          "indexed": false,
          "internalType": "bool",
          "name": "isVerified",
          "type": "bool"
        }
      ],
      "name": "CredentialVerified",
      "type": "event"
    },
    {
      "inputs": [
        {
          "internalType": "string",
          "name": "credentialId",
          "type": "string"
        },
        {
          "internalType": "bytes32",
          "name": "hashValue",
          "type": "bytes32"
        },
        {
          "internalType": "string",
          "name": "ipfsHash",
          "type": "string"
        }
      ],
      "name": "issueCredential",
      "outputs": [],
      "stateMutability": "nonpayable",
      "type": "function"
    },
    {
      "inputs": [
        {
          "internalType": "string",
          "name": "credentialId",
          "type": "string"
        }
      ],
      "name": "verifyCredential",
      "outputs": [
        {
          "internalType": "bool",
          "name": "",
          "type": "bool"
        },
        {
          "internalType": "string",
          "name": "",
          "type": "string"
        }
      ],
      "stateMutability": "view",
      "type": "function"
    },
    {
      "inputs": [
        {
          "internalType": "string",
          "name": "credentialId",
          "type": "string"
        }
      ],
      "name": "revokeCredential",
      "outputs": [],
      "stateMutability": "nonpayable",
      "type": "function"
    }
  ],
  "bytecode": "0x608060405234801561000f575f80fd5b50610bfc8061001d5f395ff3fe608060405234801561000f575f80fd5b506004361061003f575f3560e01c80635e9a2d2814610043578063bb3670ab1461005f578063d09080da14610090575b5f80fd5b61005d60048036038101906100589190610590565b6100ac565b005b61007960048036038101906100749190610590565b610183565b60405161008792919061066b565b60405180910390f35b6100aa60048036038101906100a591906106cc565b610308565b005b5f801b5f826040516100be919061078e565b90815260200160405180910390206001015403610110576040517f08c379a0000000000000000000000000000000000000000000000000000000008152600401610107906107ee565b60405180910390fd5b5f8082604051610120919061078e565b90815260200160405180910390206003015f6101000a81548160ff0219169083151502179055507f0ff5416058a6903ea47d45e228cfa5d47db4f121902ca326b4b7b7feae40502b815f60405161017892919061080c565b60405180910390a150565b5f60605f8084604051610196919061078e565b90815260200160405180910390206040518060800160405290815f820180546101be90610867565b80601f01602080910402602001604051908101604052809291908181526020018280546101ea90610867565b80156102355780601f1061020c57610100808354040283529160200191610235565b820191905f5260205f20905b81548152906001019060200180831161021857829003601f168201915b505050505081526020016001820154815260200160028201805461025890610867565b80601f016020809104026020016040519081016040528092919081815260200182805461028490610867565b80156102cf5780601f106102a6576101008083540402835291602001916102cf565b820191905f5260205f20905b8154815290600101906020018083116102b257829003601f168201915b50505050508152602001600382015f9054906101000a900460ff1615151515815250509050806060015181604001519250925050915091565b5f801b5f8460405161031a919061078e565b9081526020016040518091039020600101541461036c576040517f08c379a0000000000000000000000000000000000000000000000000000000008152600401610363906108e1565b60405180910390fd5b6040518060800160405280848152602001838152602001828152602001600115158152505f8460405161039f919061078e565b90815260200160405180910390205f820151815f0190816103c09190610aa5565b506020820151816001015560408201518160020190816103e09190610aa5565b506060820151816003015f6101000a81548160ff0219169083151502179055509050507fa734dbc1b9f7add15907db4d16226a4873169b100070187d792a5002f742e3a583838360405161043693929190610b83565b60405180910390a1505050565b5f604051905090565b5f80fd5b5f80fd5b5f80fd5b5f80fd5b5f601f19601f8301169050919050565b7f4e487b71000000000000000000000000000000000000000000000000000000005f52604160045260245ffd5b6104a28261045c565b810181811067ffffffffffffffff821117156104c1576104c061046c565b5b80604052505050565b5f6104d3610443565b90506104df8282610499565b919050565b5f67ffffffffffffffff8211156104fe576104fd61046c565b5b6105078261045c565b9050602081019050919050565b828183375f83830152505050565b5f61053461052f846104e4565b6104ca565b9050828152602081018484840111156105505761054f610458565b5b61055b848285610514565b509392505050565b5f82601f83011261057757610576610454565b5b8135610587848260208601610522565b91505092915050565b5f602082840312156105a5576105a461044c565b5b5f82013567ffffffffffffffff8111156105c2576105c1610450565b5b6105ce84828501610563565b91505092915050565b5f8115159050919050565b6105eb816105d7565b82525050565b5f81519050919050565b5f82825260208201905092915050565b5f5b8381101561062857808201518184015260208101905061060d565b5f8484015250505050565b5f61063d826105f1565b61064781856105fb565b935061065781856020860161060b565b6106608161045c565b840191505092915050565b5f60408201905061067e5f8301856105e2565b81810360208301526106908184610633565b90509392505050565b5f819050919050565b6106ab81610699565b81146106b5575f80fd5b50565b5f813590506106c6816106a2565b92915050565b5f805f606084860312156106e3576106e261044c565b5b5f84013567ffffffffffffffff811115610700576106ff610450565b5b61070c86828701610563565b935050602061071d868287016106b8565b925050604084013567ffffffffffffffff81111561073e5761073d610450565b5b61074a86828701610563565b9150509250925092565b5f81905092915050565b5f610768826105f1565b6107728185610754565b935061078281856020860161060b565b80840191505092915050565b5f610799828461075e565b915081905092915050565b7f43726564656e7469616c20646f6573206e6f74206578697374000000000000005f82015250565b5f6107d86019836105fb565b91506107e3826107a4565b602082019050919050565b5f6020820190508181035f830152610805816107cc565b9050919050565b5f6040820190508181035f8301526108248185610633565b905061083360208301846105e2565b9392505050565b7f4e487b71000000000000000000000000000000000000000000000000000000005f52602260045260245ffd5b5f600282049050600182168061087e57607f821691505b6020821081036108915761089061083a565b5b50919050565b7f43726564656e7469616c20616c726561647920657869737473000000000000005f82015250565b5f6108cb6019836105fb565b91506108d682610897565b602082019050919050565b5f6020820190508181035f8301526108f8816108bf565b9050919050565b5f819050815f5260205f209050919050565b5f6020601f8301049050919050565b5f82821b905092915050565b5f6008830261095b7fffffffffffffffffffffffffffffffffffffffffffffffffffffffffffffffff82610920565b6109658683610920565b95508019841693508086168417925050509392505050565b5f819050919050565b5f819050919050565b5f6109a96109a461099f8461097d565b610986565b61097d565b9050919050565b5f819050919050565b6109c28361098f565b6109d66109ce826109b0565b84845461092c565b825550505050565b5f90565b6109ea6109de565b6109f58184846109b9565b505050565b5b81811015610a1857610a0d5f826109e2565b6001810190506109fb565b5050565b601f821115610a5d57610a2e816108ff565b610a3784610911565b81016020851015610a46578190505b610a5a610a5285610911565b8301826109fa565b50505b505050565b5f82821c905092915050565b5f610a7d5f1984600802610a62565b1980831691505092915050565b5f610a958383610a6e565b9150826002028217905092915050565b610aae826105f1565b67ffffffffffffffff811115610ac757610ac661046c565b5b610ad18254610867565b610adc828285610a1c565b5f60209050601f831160018114610b0d575f8415610afb578287015190505b610b058582610a8a565b865550610b6c565b601f198416610b1b866108ff565b5f5b82811015610b4257848901518255600182019150602085019450602081019050610b1d565b86831015610b5f5784890151610b5b601f891682610a6e565b8355505b6001600288020188555050505b505050505050565b610b7d81610699565b82525050565b5f6060820190508181035f830152610b9b8186610633565b9050610baa6020830185610b74565b8181036040830152610bbc8184610633565b905094935050505056fea2646970667358221220da2b7caf4cd654a3635d9eb717c4bf62dffc4d00807d7f9ce0ebeb26a7de941d64736f6c63430008150033",
  "immutableReferences": {},
  "source": "pragma solidity ^0.8.0;\r\n\r\ncontract CredentialContract {\r\n    struct Credential {\r\n        string credentialId;\r\n        bytes32 hashValue;\r\n        string ipfsHash;\r\n        bool isVerified;\r\n    }\r\n\r\n    mapping(string => Credential) private credentials;\r\n\r\n    event CredentialIssued(string credentialId, bytes32 hashValue, string ipfsHash);\r\n    event CredentialVerified(string credentialId, bool isVerified);\r\n\r\n    function issueCredential(string memory credentialId, bytes32 hashValue, string memory ipfsHash) public {\r\n        require(credentials[credentialId].hashValue == bytes32(0), \"Credential already exists\");\r\n        credentials[credentialId] = Credential(credentialId, hashValue, ipfsHash, true);\r\n        emit CredentialIssued(credentialId, hashValue, ipfsHash);\r\n    }\r\n\r\n    function verifyCredential(string memory credentialId) public view returns (bool, string memory) {\r\n        Credential memory credential = credentials[credentialId];\r\n        return (credential.isVerified, credential.ipfsHash);\r\n    }\r\n\r\n    function revokeCredential(string memory credentialId) public {\r\n        require(credentials[credentialId].hashValue != bytes32(0), \"Credential does not exist\");\r\n        credentials[credentialId].isVerified = false;\r\n        emit CredentialVerified(credentialId, false);\r\n    }\r\n}",
  "sourcePath": "C:\\Users\\HP\\documents\\myProjects\\ethSafari\\ecvs-system\\server\\contracts\\CredentialContract.sol",
  "compiler": {
    "name": "solc",
    "version": "0.8.21+commit.d9974bed.Emscripten.clang"
  },
  "schemaVersion": "3.4.16",
  "updatedAt": "2024-09-10T09:03:49.101Z",
  "devdoc": {
    "kind": "dev",
    "methods": {},
    "version": 1
  },
  "userdoc": {
    "kind": "user",
    "methods": {},
    "version": 1
  }
}