{
  "contractName": "CredentialContract",
  "abi": [
    {
      "anonymous": false,
      "inputs": [
        {
          "indexed": false,
          "internalType": "string",
          "name": "credentialId",
          "type": "string"
        },
        {
          "indexed": false,
          "internalType": "bytes32",
          "name": "hashValue",
          "type": "bytes32"
        }
      ],
      "name": "CredentialIssued",
      "type": "event"
    },
    {
      "anonymous": false,
      "inputs": [
        {
          "indexed": false,
          "internalType": "string",
          "name": "credentialId",
          "type": "string"
        },
        {
          "indexed": false,
          "internalType": "bool",
          "name": "isVerified",
          "type": "bool"
        }
      ],
      "name": "CredentialVerified",
      "type": "event"
    },
    {
      "inputs": [
        {
          "internalType": "string",
          "name": "credentialId",
          "type": "string"
        },
        {
          "internalType": "bytes32",
          "name": "hashValue",
          "type": "bytes32"
        }
      ],
      "name": "issueCredential",
      "outputs": [],
      "stateMutability": "nonpayable",
      "type": "function"
    },
    {
      "inputs": [
        {
          "internalType": "string",
          "name": "credentialId",
          "type": "string"
        }
      ],
      "name": "verifyCredential",
      "outputs": [
        {
          "internalType": "bool",
          "name": "",
          "type": "bool"
        }
      ],
      "stateMutability": "view",
      "type": "function",
      "constant": true
    },
    {
      "inputs": [
        {
          "internalType": "string",
          "name": "credentialId",
          "type": "string"
        }
      ],
      "name": "revokeCredential",
      "outputs": [],
      "stateMutability": "nonpayable",
      "type": "function"
    }
  ],
  "bytecode": "0x608060405234801561000f575f80fd5b50610aeb8061001d5f395ff3fe608060405234801561000f575f80fd5b506004361061003f575f3560e01c806309cac301146100435780635e9a2d281461005f578063bb3670ab1461007b575b5f80fd5b61005d6004803603810190610058919061050a565b6100ab565b005b61007960048036038101906100749190610564565b6101c7565b005b61009560048036038101906100909190610564565b61029e565b6040516100a291906105c5565b60405180910390f35b5f801b5f836040516100bd919061064a565b9081526020016040518091039020600101541461010f576040517f08c379a0000000000000000000000000000000000000000000000000000000008152600401610106906106ba565b60405180910390fd5b6040518060600160405280838152602001828152602001600115158152505f8360405161013c919061064a565b90815260200160405180910390205f820151815f01908161015d91906108db565b50602082015181600101556040820151816002015f6101000a81548160ff0219169083151502179055509050507f72a8f8ac9ca3040af05b125ef50fed0e814415b9dd733598e4dcb67e72b8d81b82826040516101bb9291906109f1565b60405180910390a15050565b5f801b5f826040516101d9919061064a565b9081526020016040518091039020600101540361022b576040517f08c379a000000000000000000000000000000000000000000000000000000000815260040161022290610a69565b60405180910390fd5b5f808260405161023b919061064a565b90815260200160405180910390206002015f6101000a81548160ff0219169083151502179055507f0ff5416058a6903ea47d45e228cfa5d47db4f121902ca326b4b7b7feae40502b815f604051610293929190610a87565b60405180910390a150565b5f805f836040516102af919061064a565b90815260200160405180910390206040518060600160405290815f820180546102d790610705565b80601f016020809104026020016040519081016040528092919081815260200182805461030390610705565b801561034e5780601f106103255761010080835404028352916020019161034e565b820191905f5260205f20905b81548152906001019060200180831161033157829003601f168201915b5050505050815260200160018201548152602001600282015f9054906101000a900460ff16151515158152505090508060400151915050919050565b5f604051905090565b5f80fd5b5f80fd5b5f80fd5b5f80fd5b5f601f19601f8301169050919050565b7f4e487b71000000000000000000000000000000000000000000000000000000005f52604160045260245ffd5b6103e9826103a3565b810181811067ffffffffffffffff82111715610408576104076103b3565b5b80604052505050565b5f61041a61038a565b905061042682826103e0565b919050565b5f67ffffffffffffffff821115610445576104446103b3565b5b61044e826103a3565b9050602081019050919050565b828183375f83830152505050565b5f61047b6104768461042b565b610411565b9050828152602081018484840111156104975761049661039f565b5b6104a284828561045b565b509392505050565b5f82601f8301126104be576104bd61039b565b5b81356104ce848260208601610469565b91505092915050565b5f819050919050565b6104e9816104d7565b81146104f3575f80fd5b50565b5f81359050610504816104e0565b92915050565b5f80604083850312156105205761051f610393565b5b5f83013567ffffffffffffffff81111561053d5761053c610397565b5b610549858286016104aa565b925050602061055a858286016104f6565b9150509250929050565b5f6020828403121561057957610578610393565b5b5f82013567ffffffffffffffff81111561059657610595610397565b5b6105a2848285016104aa565b91505092915050565b5f8115159050919050565b6105bf816105ab565b82525050565b5f6020820190506105d85f8301846105b6565b92915050565b5f81519050919050565b5f81905092915050565b5f5b8381101561060f5780820151818401526020810190506105f4565b5f8484015250505050565b5f610624826105de565b61062e81856105e8565b935061063e8185602086016105f2565b80840191505092915050565b5f610655828461061a565b915081905092915050565b5f82825260208201905092915050565b7f43726564656e7469616c20616c726561647920657869737473000000000000005f82015250565b5f6106a4601983610660565b91506106af82610670565b602082019050919050565b5f6020820190508181035f8301526106d181610698565b9050919050565b7f4e487b71000000000000000000000000000000000000000000000000000000005f52602260045260245ffd5b5f600282049050600182168061071c57607f821691505b60208210810361072f5761072e6106d8565b5b50919050565b5f819050815f5260205f209050919050565b5f6020601f8301049050919050565b5f82821b905092915050565b5f600883026107917fffffffffffffffffffffffffffffffffffffffffffffffffffffffffffffffff82610756565b61079b8683610756565b95508019841693508086168417925050509392505050565b5f819050919050565b5f819050919050565b5f6107df6107da6107d5846107b3565b6107bc565b6107b3565b9050919050565b5f819050919050565b6107f8836107c5565b61080c610804826107e6565b848454610762565b825550505050565b5f90565b610820610814565b61082b8184846107ef565b505050565b5b8181101561084e576108435f82610818565b600181019050610831565b5050565b601f8211156108935761086481610735565b61086d84610747565b8101602085101561087c578190505b61089061088885610747565b830182610830565b50505b505050565b5f82821c905092915050565b5f6108b35f1984600802610898565b1980831691505092915050565b5f6108cb83836108a4565b9150826002028217905092915050565b6108e4826105de565b67ffffffffffffffff8111156108fd576108fc6103b3565b5b6109078254610705565b610912828285610852565b5f60209050601f831160018114610943575f8415610931578287015190505b61093b85826108c0565b8655506109a2565b601f19841661095186610735565b5f5b8281101561097857848901518255600182019150602085019450602081019050610953565b868310156109955784890151610991601f8916826108a4565b8355505b6001600288020188555050505b505050505050565b5f6109b4826105de565b6109be8185610660565b93506109ce8185602086016105f2565b6109d7816103a3565b840191505092915050565b6109eb816104d7565b82525050565b5f6040820190508181035f830152610a0981856109aa565b9050610a1860208301846109e2565b9392505050565b7f43726564656e7469616c20646f6573206e6f74206578697374000000000000005f82015250565b5f610a53601983610660565b9150610a5e82610a1f565b602082019050919050565b5f6020820190508181035f830152610a8081610a47565b9050919050565b5f6040820190508181035f830152610a9f81856109aa565b9050610aae60208301846105b6565b939250505056fea2646970667358221220e6149803ed451edc97139c6dc1ba2e898d6108e7993d74df1793859cd2797a6b64736f6c63430008150033",
  "immutableReferences": {},
  "source": "// SPDX-License-Identifier: MIT\r\npragma solidity ^0.8.0;\r\n\r\ncontract CredentialContract {\r\n    struct Credential {\r\n        string credentialId;\r\n        bytes32 hashValue;\r\n        bool isVerified;\r\n    }\r\n\r\n    mapping(string => Credential) private credentials;\r\n\r\n    event CredentialIssued(string credentialId, bytes32 hashValue);\r\n    event CredentialVerified(string credentialId, bool isVerified);\r\n\r\n    function issueCredential(string memory credentialId, bytes32 hashValue) public {\r\n        require(credentials[credentialId].hashValue == bytes32(0), \"Credential already exists\");\r\n        credentials[credentialId] = Credential(credentialId, hashValue, true);\r\n        emit CredentialIssued(credentialId, hashValue);\r\n    }\r\n\r\n    function verifyCredential(string memory credentialId) public view returns (bool) {\r\n        Credential memory credential = credentials[credentialId];\r\n        return credential.isVerified;\r\n    }\r\n\r\n    function revokeCredential(string memory credentialId) public {\r\n        require(credentials[credentialId].hashValue != bytes32(0), \"Credential does not exist\");\r\n        credentials[credentialId].isVerified = false;\r\n        emit CredentialVerified(credentialId, false);\r\n    }\r\n}",
  "sourcePath": "C:\\Users\\HP\\documents\\myProjects\\ethSafari\\ecvs-system\\server\\contracts\\CredentialContract.sol",
  "compiler": {
    "name": "solc",
    "version": "0.8.21+commit.d9974bed.Emscripten.clang"
  },
  "schemaVersion": "3.4.16",
  "updatedAt": "2024-09-10T20:46:03.412Z",
  "networkType": "ethereum",
  "devdoc": {
    "kind": "dev",
    "methods": {},
    "version": 1
  },
  "userdoc": {
    "kind": "user",
    "methods": {},
    "version": 1
  }
}